S0160000476363415652385F766D6C6162312E737265633E
S113000019C020C01FC01EC01DC01CC01BC01AC008
S113001019C018C017C016C015C014C013C012C030
S113002011C010C00FC00EC00DC00CC00BC00AC060
S113003009C008C011241FBECFEFD4E0DEBFCDBF7E
S113004079D042C2DDCF1092C5008CE08093C40009
S113005082E08093C00086E08093C20088E18093B0
S1130060C1000895E0ECF0E0A6ECB0E006C08081A9
S11300708823ECF78C918A3021F080818823D4F393
S1130080F6CF0895CF93DF93E0ECF0E0A6ECB0E078
S113009070E060E0D1E0C0E080818823ECF78C91CF
S11300A090E086349105F9F4272F362F472F562FE9
S11300B00DC080818823ECF78C9190E08136910506
S11300C019F44D2F5C2F02C02D2F3C2F41155105E3
S11300D039F42115310539F4808188236CF3E9CF93
S11300E04130510559F083369105B1F60DC0808138
S11300F08823ECF78C91833621F0CECF80E090E01A
S113010007C081E090E004C08081882384F7F2CFA7
S1130110DF91CF91089587B18F6087B984B184B995
S11301202FE38DE093E0215080409040E1F700C040
S113013000000895CF93DF9300D0CDB7DEB783DFFF
S1130140EADF88B1876088B9E0ECF0E0808185FF60
S1130150FDCF8AEA8093C600E0ECF0E0808185FF61
S1130160FDCF84E08093C600E0ECF0E0808185FF61
S1130170FDCF80E38093C600E0ECF0E0808185FF52
S1130180FDCF80E48093C600E0ECF0E0808185FF41
S1130190FDCF81E48093C600E0ECF0E0808185FF30
S11301A0FDCF8AE08093C6005DDF88B1887F88B97F
S11301B0C12CD12C612C712C1A821982A12CB12C46
S11301C0812C912C00E010E00F2EF6ECEF2EF12C98
S11301D0F02D212C312C44244394512C8EC0E0EC7E
S11301E0F0E0808188230CF05AC0F701808190E010
S11301F08034910561F5F1E08F169104B9F024F48F
S11302008114910451F023C0E2E08E169104A9F008
S1130210F3E08F169104C9F01AC0409A23DFCC246E
S1130220C394D12C88248394912C39C0419A1ADF29
S11302306894882481F8912C32C0429A13DF0F2EDF
S1130240F3E08F2EF02D912C2AC00CDF28C08134CE
S1130250910529F521E08216910481F024F481149A
S1130260910451F01CC092E08916910461F0E3E01E
S11302708E16910471F013C0F5DE11C04098F2DEC1
S1130280822C932C0CC04198EDDE88248394912C0D
S113029006C04298E7DE6894882481F8912C189966
S11302A003C0042D152DFBCFF1E0CF16D10429F5A1
S11302B02FEFA21AB20AA1148DE7B80639F4E98126
S11302C0FA813196FA83E983A22CB32C89819A812D
S11302D0843D910529F49FEF691A790A29823A82AB
S11302E0E1E06E16710449F488B1887F88B9C22CA4
S11302F0D32C622C732C822C932C0115110509F438
S11303006ECF88B1887F88B9FFEB27E289E0F1508E
S113031020408040E1F700C0000088B1856088B9C2
S11303209FEBE7E2F9E09150E040F040E1F700C0D4
S11303300000E0ECF0E0808185FFFBCF2AEAF701C2
S11303402083E0ECF0E0808185FFFBCF23E0F70120
S11303502083E0ECF0E0808185FFFBCF20E2F70111
S11303602083E0ECF0E0808185FFFBCF20E4F701FF
S11303702083E0ECF0E0808185FFFBCF2AE0F701E9
S1130380208380DE019709F05DC06CDE88B1887F30
S113039088B98FEB97E2E9E081509040E040E1F7C3
S11303A000C0000088B1856088B9FFEB27E289E0CE
S11303B0F15020408040E1F700C00000E0ECF0E0A4
S11303C0808185FFFBCF2AEAF7012083E0ECF0E08F
S11303D0808185FFFBCF23E0F7012083E0ECF0E090
S11303E0808185FFFBCF20E2F7012083E0ECF0E081
S11303F0808185FFFBCF81E4F7018083E0ECF0E0AE
S1130400808185FFFBCF2AE0F70120833BDE019743
S1130410C9F428DE88B1887F88B98FEB97E2E9E0D8
S113042081509040E040E1F700C0000088B1856051
S113043088B9FFEB27E289E0F15020408040E1F7E2
S113044000C0000088B1887F88B99FE7EAE1F6E040
S11304509150E040F040E1F700C00000E0ECF0E033
S1130460808185FFFBCF2AEAF7012083E0ECF0E0EE
S1130470808185FFFBCF84E0F7018083E0ECF0E02E
S1130480808185FFFBCF80E3F7018083E0ECF0E01F
S1130490808185FFFBCF20E4F7012083E0ECF0E0CE
S11304A0808185FFFBCF81E4F7018083E0ECF0E0FD
S11304B0808185FFFBCF2AE0F7012083D3DD822CE6
S10F04C0932C022D132D19CFF894FFCFBC
S9030000FC
